{
  "_format": "hh-sol-artifact-1",
  "contractName": "EscrowManager",
  "sourceName": "contracts/Escrow.sol",
  "abi": [
    {
      "inputs": [
        {
          "internalType": "uint256",
          "name": "dealId",
          "type": "uint256"
        }
      ],
      "name": "confirmDelivery",
      "outputs": [],
      "stateMutability": "nonpayable",
      "type": "function"
    },
    {
      "inputs": [
        {
          "internalType": "address",
          "name": "seller",
          "type": "address"
        }
      ],
      "name": "createEscrow",
      "outputs": [
        {
          "internalType": "uint256",
          "name": "",
          "type": "uint256"
        }
      ],
      "stateMutability": "payable",
      "type": "function"
    },
    {
      "inputs": [],
      "name": "dealCounter",
      "outputs": [
        {
          "internalType": "uint256",
          "name": "",
          "type": "uint256"
        }
      ],
      "stateMutability": "view",
      "type": "function"
    },
    {
      "inputs": [
        {
          "internalType": "uint256",
          "name": "",
          "type": "uint256"
        }
      ],
      "name": "deals",
      "outputs": [
        {
          "internalType": "address",
          "name": "buyer",
          "type": "address"
        },
        {
          "internalType": "address",
          "name": "seller",
          "type": "address"
        },
        {
          "internalType": "uint256",
          "name": "amount",
          "type": "uint256"
        },
        {
          "internalType": "enum EscrowManager.Status",
          "name": "status",
          "type": "uint8"
        }
      ],
      "stateMutability": "view",
      "type": "function"
    },
    {
      "inputs": [
        {
          "internalType": "uint256",
          "name": "dealId",
          "type": "uint256"
        }
      ],
      "name": "getDeal",
      "outputs": [
        {
          "internalType": "address",
          "name": "",
          "type": "address"
        },
        {
          "internalType": "uint256",
          "name": "",
          "type": "uint256"
        },
        {
          "internalType": "uint256",
          "name": "",
          "type": "uint256"
        },
        {
          "internalType": "enum EscrowManager.Status",
          "name": "",
          "type": "uint8"
        }
      ],
      "stateMutability": "view",
      "type": "function"
    },
    {
      "inputs": [
        {
          "internalType": "uint256",
          "name": "dealId",
          "type": "uint256"
        }
      ],
      "name": "refund",
      "outputs": [],
      "stateMutability": "nonpayable",
      "type": "function"
    }
  ],
  "bytecode": "0x6080604052348015600f57600080fd5b50610ebb8061001f6000396000f3fe6080604052600436106100555760003560e01c806303988f841461005a578063217328b61461009a578063278ecde1146100c557806382fd5bac146100ee578063f6a8419e1461012e578063fd84cb971461015e575b600080fd5b34801561006657600080fd5b50610081600480360381019061007c91906109a3565b610187565b6040516100919493929190610a97565b60405180910390f35b3480156100a657600080fd5b506100af610204565b6040516100bc9190610adc565b60405180910390f35b3480156100d157600080fd5b506100ec60048036038101906100e791906109a3565b61020a565b005b3480156100fa57600080fd5b50610115600480360381019061011091906109a3565b610408565b6040516101259493929190610af7565b60405180910390f35b61014860048036038101906101439190610b68565b610556565b6040516101559190610adc565b60405180910390f35b34801561016a57600080fd5b50610185600480360381019061018091906109a3565b61076a565b005b60006020528060005260406000206000915090508060000160009054906101000a900473ffffffffffffffffffffffffffffffffffffffff16908060010160009054906101000a900473ffffffffffffffffffffffffffffffffffffffff16908060020154908060030160009054906101000a900460ff16905084565b60015481565b3373ffffffffffffffffffffffffffffffffffffffff1660008083815260200190815260200160002060010160009054906101000a900473ffffffffffffffffffffffffffffffffffffffff1673ffffffffffffffffffffffffffffffffffffffff16146102ad576040517f08c379a00000000000000000000000000000000000000000000000000000000081526004016102a490610bf2565b60405180910390fd5b600060028111156102c1576102c0610a20565b5b60008083815260200190815260200160002060030160009054906101000a900460ff1660028111156102f6576102f5610a20565b5b14610336576040517f08c379a000000000000000000000000000000000000000000000000000000000815260040161032d90610c5e565b60405180910390fd5b600260008083815260200190815260200160002060030160006101000a81548160ff0219169083600281111561036f5761036e610a20565b5b021790555060008082815260200190815260200160002060000160009054906101000a900473ffffffffffffffffffffffffffffffffffffffff1673ffffffffffffffffffffffffffffffffffffffff166108fc600080848152602001908152602001600020600201549081150290604051600060405180830381858888f19350505050158015610404573d6000803e3d6000fd5b5050565b60008060008060008060008781526020019081526020016000206040518060800160405290816000820160009054906101000a900473ffffffffffffffffffffffffffffffffffffffff1673ffffffffffffffffffffffffffffffffffffffff1673ffffffffffffffffffffffffffffffffffffffff1681526020016001820160009054906101000a900473ffffffffffffffffffffffffffffffffffffffff1673ffffffffffffffffffffffffffffffffffffffff1673ffffffffffffffffffffffffffffffffffffffff168152602001600282015481526020016003820160009054906101000a900460ff16600281111561050857610507610a20565b5b600281111561051a57610519610a20565b5b815250509050806020015181604001518260600151600281111561054157610540610a20565b5b83606001519450945094509450509193509193565b60003373ffffffffffffffffffffffffffffffffffffffff168273ffffffffffffffffffffffffffffffffffffffff16036105c6576040517f08c379a00000000000000000000000000000000000000000000000000000000081526004016105bd90610cf0565b60405180910390fd5b60003411610609576040517f08c379a000000000000000000000000000000000000000000000000000000000815260040161060090610d82565b60405180910390fd5b6001600081548092919061061c90610dd1565b919050555060405180608001604052803373ffffffffffffffffffffffffffffffffffffffff1681526020018373ffffffffffffffffffffffffffffffffffffffff1681526020013481526020016000600281111561067e5761067d610a20565b5b815250600080600154815260200190815260200160002060008201518160000160006101000a81548173ffffffffffffffffffffffffffffffffffffffff021916908373ffffffffffffffffffffffffffffffffffffffff16021790555060208201518160010160006101000a81548173ffffffffffffffffffffffffffffffffffffffff021916908373ffffffffffffffffffffffffffffffffffffffff1602179055506040820151816002015560608201518160030160006101000a81548160ff0219169083600281111561075857610757610a20565b5b02179055509050506001549050919050565b3373ffffffffffffffffffffffffffffffffffffffff1660008083815260200190815260200160002060000160009054906101000a900473ffffffffffffffffffffffffffffffffffffffff1673ffffffffffffffffffffffffffffffffffffffff161461080d576040517f08c379a000000000000000000000000000000000000000000000000000000000815260040161080490610e65565b60405180910390fd5b6000600281111561082157610820610a20565b5b60008083815260200190815260200160002060030160009054906101000a900460ff16600281111561085657610855610a20565b5b14610896576040517f08c379a000000000000000000000000000000000000000000000000000000000815260040161088d90610c5e565b60405180910390fd5b600160008083815260200190815260200160002060030160006101000a81548160ff021916908360028111156108cf576108ce610a20565b5b021790555060008082815260200190815260200160002060010160009054906101000a900473ffffffffffffffffffffffffffffffffffffffff1673ffffffffffffffffffffffffffffffffffffffff166108fc600080848152602001908152602001600020600201549081150290604051600060405180830381858888f19350505050158015610964573d6000803e3d6000fd5b5050565b600080fd5b6000819050919050565b6109808161096d565b811461098b57600080fd5b50565b60008135905061099d81610977565b92915050565b6000602082840312156109b9576109b8610968565b5b60006109c78482850161098e565b91505092915050565b600073ffffffffffffffffffffffffffffffffffffffff82169050919050565b60006109fb826109d0565b9050919050565b610a0b816109f0565b82525050565b610a1a8161096d565b82525050565b7f4e487b7100000000000000000000000000000000000000000000000000000000600052602160045260246000fd5b60038110610a6057610a5f610a20565b5b50565b6000819050610a7182610a4f565b919050565b6000610a8182610a63565b9050919050565b610a9181610a76565b82525050565b6000608082019050610aac6000830187610a02565b610ab96020830186610a02565b610ac66040830185610a11565b610ad36060830184610a88565b95945050505050565b6000602082019050610af16000830184610a11565b92915050565b6000608082019050610b0c6000830187610a02565b610b196020830186610a11565b610b266040830185610a11565b610b336060830184610a88565b95945050505050565b610b45816109f0565b8114610b5057600080fd5b50565b600081359050610b6281610b3c565b92915050565b600060208284031215610b7e57610b7d610968565b5b6000610b8c84828501610b53565b91505092915050565b600082825260208201905092915050565b7f4f6e6c792073656c6c65722063616e206973737565206120726566756e642e00600082015250565b6000610bdc601f83610b95565b9150610be782610ba6565b602082019050919050565b60006020820190508181036000830152610c0b81610bcf565b9050919050565b7f4465616c20616c726561647920636f6d706c657465642e000000000000000000600082015250565b6000610c48601783610b95565b9150610c5382610c12565b602082019050919050565b60006020820190508181036000830152610c7781610c3b565b9050919050565b7f427579657220616e642073656c6c65722063616e6e6f7420626520746865207360008201527f616d6520616464726573732e0000000000000000000000000000000000000000602082015250565b6000610cda602c83610b95565b9150610ce582610c7e565b604082019050919050565b60006020820190508181036000830152610d0981610ccd565b9050919050565b7f457363726f7720616d6f756e74206d757374206265206772656174657220746860008201527f616e207a65726f2e000000000000000000000000000000000000000000000000602082015250565b6000610d6c602883610b95565b9150610d7782610d10565b604082019050919050565b60006020820190508181036000830152610d9b81610d5f565b9050919050565b7f4e487b7100000000000000000000000000000000000000000000000000000000600052601160045260246000fd5b6000610ddc8261096d565b91507fffffffffffffffffffffffffffffffffffffffffffffffffffffffffffffffff8203610e0e57610e0d610da2565b5b600182019050919050565b7f4f6e6c792062757965722063616e20636f6e6669726d2064656c69766572792e600082015250565b6000610e4f602083610b95565b9150610e5a82610e19565b602082019050919050565b60006020820190508181036000830152610e7e81610e42565b905091905056fea26469706673582212201004442d831695d442ac0653ca5fb5fc7aa7ca9a085f762736e13b2fa0172dfd64736f6c634300081c0033",
  "linkReferences": {},
  "deployedLinkReferences": {}
}